:100000000C9434000C9450000C9450000C9450004C
:100010000C9450000C9450000C9450000C94500020
:100020000C9450000C9450000C9450000C94500010
:100030000C9450000C9450000C9450000C94500000
:100040000C9450000C9450000C9450000C945000F0
:100050000C9450000C9450000C9450000C945000E0
:100060000C9450000C94500011241FBECFEFD8E028
:10007000DEBFCDBF0E944B000C944000F894FFCF30
:10008000EC010E9455000E945400CE010E945600CF
:06009000CE010E945200A7
:0A0096008FEF84B98DE685B9FECF27
:0400A0000C940000BC
:0400A4000E943E0078
:0200A8000895B9
:0200AA000895B7
:0200AC000895B5
:00000001FF
