:100000000C9434000C9456020C9456020C94560234
:100010000C9456020C9456020C9456020C94560200
:100020000C9456020C9456020C9456020C945602F0
:100030000C9456020C9456020C9456020C945602E0
:100040000C9456020C9456020C9456020C945602D0
:100050000C9456020C9456020C9456020C945602C0
:100060000C9456020C94560211241FBECFEFD8E018
:10007000DEBFCDBF0E94AB000C941F02F894FFCFEF
:1000800048656C6C6F2C20576F726C64210D0A00F0
:10009000CF93DF93CDB7DEB785EC90E0FC01108203
:1000A00084EC90E027E6FC01208381EC90E028E1DD
:1000B000FC01208382EC90E026E0FC01208300001C
:1000C000DF91CF910895CF93DF930F92CDB7DEB735
:1000D0008983000080EC90E0FC018081882F90E013
:1000E00080729927892BB1F386EC90E02981FC017D
:1000F000208300000F90DF91CF910895CF93DF937D
:1001000000D00F92CDB7DEB769837A838B8312C09C
:1001100089819A81AB819C014A2F2F5F3F4F4F4FBE
:1001200029833A834B83FC019A2F849197FD808128
:100130000E94630089819A81AB81FC019A2F84918E
:1001400097FD8081882321F700000F900F900F907A
:10015000DF91CF910895CF93DF93CDB7DEB72E9780
:100160000FB6F894DEBF0FBECDBF0E94480060E816
:1001700070E080E00E947E0080E090E0AAE7B4E4B6
:1001800089839A83AB83BC8320E030E04AE755E45F
:1001900069817A818B819C810E944F02DC01CB01B5
:1001A0008D839E83AF83B88720E030E040E85FE333
:1001B0006D817E818F8198850E94450288232CF471
:1001C00081E090E09A8789873FC020E03FEF4FE7CA
:1001D00057E46D817E818F8198850E944A021816AE
:1001E0004CF520E030E040E251E469817A818B8176
:1001F0009C810E944F02DC01CB01BC01CD010E9419
:100200009901DC01CB019A8789870FC080E991E0D1
:100210009C878B878B859C850197F1F79C878B87C3
:1002200089859A8501979A87898789859A85892BF7
:1002300069F714C06D817E818F8198850E94990134
:10024000DC01CB019A87898789859A859E878D876E
:0E0250008D859E850197F1F79E878D8788CF5B
:10025E000FC00E94310238F00E94380220F0952320
:10026E0011F00C943F020C94530211240C942B02A7
:10027E000E94EC0170F3959FC1F3950F50E0551F4E
:10028E00629FF001729FBB27F00DB11D639FAA27DD
:10029E00F00DB11DAA1F649F6627B00DA11D661F2C
:1002AE00829F2227B00DA11D621F739FB00DA11D4D
:1002BE00621F839FA00D611D221F749F3327A00D07
:1002CE00611D231F849F600D211D822F762F6A2FA3
:1002DE0011249F5750409AF0F1F088234AF0EE0F08
:1002EE00FF1FBB1F661F771F881F91505040A9F735
:1002FE009E3F510580F00C943F020C942B025F3F01
:10030E00E4F3983ED4F3869577956795B795F79570
:10031E00E7959F5FC1F7FE2B880F911D96958795E8
:04032E0097F908959E
:100332000E94F40188F09F5798F0B92F9927B7517E
:10034200B0F0E1F0660F771F881F991F1AF0BA9577
:10035200C9F714C0B13091F00E942A02B1E00895A9
:100362000C942A02672F782F8827B85F39F0B93F9B
:10037200CCF3869577956795B395D9F73EF490952A
:0E0382008095709561957F4F8F4F9F4F089526
:10039000990F0008550FAA0BE0E8FEEF1616170696
:1003A000E807F907C0F012161306E407F50798F0FE
:1003B000621B730B840B950B39F40A2661F0232B17
:1003C000242B252B21F408950A2609F4A140A69593
:0803D0008FEF811D811D0895CE
:1003D80057FD9058440F551F59F05F3F71F04795EE
:1003E800880F97FB991F61F09F3F79F087950895D3
:1003F800121613061406551FF2CF4695F1DF08C0F2
:10040800161617061806991FF1CF8695710561050E
:0404180008940895A7
:10041C00092E0394000C11F4882352F0BB0F40F406
:10042C00BF2B11F460FF04C06F5F7F4F8F4F9F4F46
:02043C00089521
:10043E00EC010E945B020E945A02CE010E945C02F5
:06044E00CE010E945802DD
:0E045400E894BB2766277727CB0197F9089518
:0E04620000240A9416161706180609060895B7
:0E04700000240A9412161306140605060895B9
:0C047E0097F99F6780E870E060E0089547
:0A048A000E94C80108F481E0089503
:0A0494000E94C80108F48FEF0895DC
:08049E000E942F010C940E02D4
:0604A6009FEF80EC0895B9
:0404AC000C940000AC
:0404B0000E943E0068
:0204B4000895A9
:0204B6000895A7
:0204B8000895A5
:00000001FF
