:100000000C9434000C9466000C9466000C9466000A
:100010000C9466000C9466000C9466000C946600C8
:100020000C9466000C9466000C9466000C946600B8
:100030000C9466000C9466000C9466000C946600A8
:100040000C9440000C9466000C9466000C946600BE
:100050000C9466000C9466000C9466000C94660088
:100060000C9466000C94660011241FBECFEFD8E0FC
:10007000DEBFCDBF0E944F000C945B00F894FFCF11
:100080008F938FB78F939F9395B181E0892785B91F
:0E00900083E886BD9F918F918FBF8F91189549
:10009E0081E084B915B814BC93E095BD80936E00D1
:0800AE0083E886BD7894FFCFC2
:1000B600EC010E946B000E946A00CE010E946C0057
:0600C600CE010E9468005B
:0400CC000C94000090
:0400D0000E943E004C
:0200D40008958D
:0200D60008958B
:0200D800089589
:00000001FF
