:100000000C9434000C9462000C9440000C94620038
:100010000C9462000C9462000C9462000C946200D8
:100020000C9462000C9462000C9462000C946200C8
:100030000C9462000C9462000C9462000C946200B8
:100040000C9462000C9462000C9462000C946200A8
:100050000C9462000C9462000C9462000C94620098
:100060000C9462000C94620011241FBECFEFD8E004
:10007000DEBFCDBF0E9458000C944D00F894FFCF16
:100080008F938FB78F939F9395B181E0892785B91F
:0A0090009F918F918FBF8F911895FB
:10009A00EC010E9467000E946600CE010E9468007F
:0600AA00CE010E9464007B
:1000B000209A53985B9A88E08093690082E08DBB18
:0400C0007894FFCF62
:0400C4000C94000098
:0400C8000E943E0054
:0200CC00089595
:0200CE00089593
:0200D000089591
:00000001FF
