:100000000C9437000C949F000C949F000C949F005C
:100010000C949F000C949F000C949F000C949F00E4
:100020000C949F000C949F000C949F000C949F00D4
:100030000C949F000C949F000C949F000C949F00C4
:100040000C9461000C949F000C949F000C949F00F2
:100050000C949F000C949F000C949F000C949F00A4
:100060000C949F000C949F00010001028000112459
:100070001FBECFEFD8E0DEBFCDBFE8E6F0E040E046
:1000800017C0B591A59135912591059107FD0CC03B
:1000900095918591EF01F92FE82F05900D92A21708
:1000A000B307D9F7FE0104C01D92A217B307E1F709
:1000B000ED36F40731F70E9487000C949400F89411
:0200C000FFCF70
:1000C2001F921FB61F9211248F939F9395B181E0C7
:1000D200892785B980910001909101010196909341
:1000E2000101809300018436910540F095B182E0D0
:1000F200892785B9109201011092000183E886BD1B
:0C0102009F918F911F901FBE1F901895B9
:10010E00209A2898219A14BC83E085BD81E08093C3
:0A011E006E0083E886BD7894FFCFE1
:10012800EC010E94A4000E94A300CE010E94A50039
:06013800CE010E94A100AF
:04013E000C9400001D
:040142000E945F00B8
:0201460008951A
:02014800089518
:02014A00089516
:00000001FF
