:100000000C9434000C9480000C9480000C948000BC
:100010000C9440000C9480000C9480000C948000A0
:100020000C9480000C9480000C9480000C94800050
:100030000C9480000C9480000C9480000C94800040
:100040000C9480000C9480000C9480000C94800030
:100050000C9480000C9480000C9480000C94800020
:100060000C9480000C94800011241FBECFEFD8E0C8
:10007000DEBFCDBF0E9467000C947500F894FFCFDF
:100080002F932FB72F938F939F93309905C09BB1D8
:1000900080E289278BB90CC0319905C09BB180E4FF
:1000A00089278BB905C0329903C08BB180588BB9B1
:1000B0002FEF83EC99E0215080409040E1F700C0A1
:0E00C00000009F918F912F912FBF2F911895C7
:1000CE0017B88FEF88B990EE9AB98BB982E080930A
:0C00DE00680087E080936C007894FFCFEE
:1000EA00EC010E9485000E948400CE010E948600D5
:0600FA00CE010E9482000D
:040100000C9400005B
:040104000E943E0017
:02010800089558
:02010A00089556
:02010C00089554
:00000001FF
