:100000000C9434000C94BA000C94BA000C94BA000E
:100010000C94BA000C94BA000C94BA000C94BA0078
:100020000C94BA000C94BA000C94BA000C94BA0068
:100030000C94BA000C94BA000C94BA000C94BA0058
:100040000C94BA000C94BA000C94BA000C94BA0048
:100050000C94BA000C94BA000C94BA000C94BA0038
:100060000C94BA000C94BA0011241FBECFEFD8E054
:10007000DEBFCDBF0E9440000C94A900F894FFCFD2
:100080008FE084B91AB8489931C081E00E94B40069
:100090002FEF80E792E0215080409040E1F700C0D0
:1000A000000082E00E94B4002FEF80E792E0215030
:1000B00080409040E1F700C0000084E00E94B4005E
:1000C0002FEF80E792E0215080409040E1F700C0A0
:1000D000000088E00E94B4002FEF80E792E02150FA
:1000E00080409040E1F700C00000CDCF4999CBCFD0
:1000F00088E00E94B4002FEF80E792E0215080401A
:100100009040E1F700C0000084E00E94B4002FEFAF
:1001100080E792E0215080409040E1F700C000006D
:1001200082E00E94B4002FEF80E792E021508040EF
:100130009040E1F700C0000081E00E94B4002FEF82
:1001400080E792E0215080409040E1F700C000003D
:020150009ACF44
:10015200EC010E94BF000E94BE00CE010E94C000BE
:06016200CE010E94BC006A
:0C01680095B1907F8F70892B85B90895A8
:040174000C940000E7
:040178000E943E00A3
:02017C000895E4
:02017E000895E2
:020180000895E0
:00000001FF
