:100000000C9434000C9490000C9490000C9490008C
:100010000C9490000C9490000C9490000C94900020
:100020000C9490000C9490000C9490000C94900010
:100030000C9490000C9490000C9490000C94900000
:100040000C9490000C9490000C9490000C949000F0
:100050000C9490000C9490000C9490000C949000E0
:100060000C9490000C94900011241FBECFEFD8E0A8
:10007000DEBFCDBF0E9440000C947C00F894FFCFFF
:100080008FEF8AB90E94870080E00E946800EC012F
:1000900081E00E946800D695C795D695C795CBB9E3
:1000A0003FEF41EE24E0315040402040E1F700C0F6
:1000B000000096958795969587958BB93FEF41EE11
:1000C00084E0315040408040E1F700C00000DCCFC8
:1000D000ECE7F0E09081987F8770892B8083EAE7D6
:1000E000F0E0808180648083808186FDFDCF8091F7
:0800F000780090917900089559
:1000F800EC010E9495000E949400CE010E94960097
:06010800CE010E949200EE
:10010E00ECE7F0E08081806480838FE880937A0052
:02011E00089542
:040120000C9400003B
:040124000E943E00F7
:02012800089538
:02012A00089536
:02012C00089534
:00000001FF
