:100000000C9434000C947C000C947C000C947C00C8
:100010000C947C000C947C000C947C000C947C0070
:100020000C947C000C947C000C947C000C947C0060
:100030000C947C000C947C000C947C000C947C0050
:100040000C947C000C947C000C947C000C947C0040
:100050000C947C000C947C000C947C000C947C0030
:100060000C947C000C947C0011241FBECFEFD8E0D0
:10007000DEBFCDBF0E9440000C946800F894FFCF13
:100080008FEF8AB90E94730080E00E945600969517
:100090008795969587958BB92FEF81EE94E0215047
:0C00A00080409040E1F700C00000EECF6F
:1000AC00ECE7F0E09081987F8770892B8083EAE7FA
:1000BC00F0E08081806480838081809178009091D1
:0400CC00790008951A
:1000D000EC010E9481000E948000CE010E948200FB
:0600E000CE010E947E002B
:1000E600ECE7F0E08081806480838FE880937A007B
:0200F60008956B
:0400F8000C94000064
:0400FC000E943E0020
:02010000089560
:0201020008955E
:0201040008955C
:00000001FF
