:100000000C9434000C9484000C9484000C948400B0
:100010000C9484000C9484000C9484000C94840050
:100020000C9484000C9484000C9484000C94840040
:100030000C9484000C9484000C9484000C94840030
:100040000C9484000C9484000C9484000C94840020
:100050000C9484000C9484000C9484000C94840010
:100060000C9484000C94840011241FBECFEFD8E0C0
:10007000DEBFCDBF0E9440000C947300F894FFCF08
:100080008FE084B981E00E947E002FEF80E792E04C
:10009000215080409040E1F700C0000082E00E94C3
:1000A0007E002FEF80E792E0215080409040E1F702
:1000B00000C0000084E00E947E002FEF80E792E005
:1000C000215080409040E1F700C0000088E00E948D
:1000D0007E002FEF80E792E0215080409040E1F7D2
:0600E00000C00000CFCFBC
:1000E600EC010E9489000E948800CE010E948A00CD
:0600F600CE010E9486000D
:0C00FC0095B1907F8F70892B85B9089515
:040108000C94000053
:04010C000E943E000F
:02011000089550
:0201120008954E
:0201140008954C
:00000001FF
