:100000000C9434000C94A9000C94A9000C94A90041
:100010000C94A9000C94A9000C94A9000C94A900BC
:100020000C94A9000C94A9000C94A9000C94A900AC
:100030000C94A9000C94A9000C94A9000C94A9009C
:100040000C94A9000C94A9000C94A9000C94A9008C
:100050000C94A9000C94A9000C94A9000C94A9007C
:100060000C94A9000C94A90011241FBECFEFD8E076
:10007000DEBFCDBF0E948A000C949800F894FFCF99
:1000800081E00E94A3008FE493EC0197F1F700C098
:10009000000082E00E94A3008FE493EC0197F1F747
:1000A00000C0000084E00E94A3008FE493EC01975D
:1000B000F1F700C0000088E00E94A3008FE493ECF9
:0A00C0000197F1F700C00000089559
:1000CA0088E00E94A3008FE493EC0197F1F700C047
:1000DA00000084E00E94A3008FE493EC0197F1F7FB
:1000EA0000C0000082E00E94A3008FE493EC019715
:1000FA00F1F700C0000081E00E94A3008FE493ECB6
:0A010A000197F1F700C0000008950E
:10011400509851988FE084B9489B03C00E944000D6
:0C012400FBCF499BF9CF0E946500F6CF8D
:10013000EC010E94AE000E94AD00CE010E94AF0013
:06014000CE010E94AB009D
:0C01460095B1907C8F73892B85B90895CA
:040152000C94000009
:040156000E943E00C5
:02015A00089506
:02015C00089504
:02015E00089502
:00000001FF
