:100000000C9434000C9473000C9473000C947300E3
:100010000C9473000C9473000C9473000C94730094
:100020000C9473000C9473000C9473000C94730084
:100030000C9473000C9473000C9473000C94730074
:100040000C9473000C9473000C9473000C94730064
:100050000C9473000C9473000C9473000C94730054
:100060000C9473000C94730011241FBECFEFD8E0E2
:10007000DEBFCDBFE8E6F0E040E017C0B591A59146
:1000800035912591059107FD0CC095918591EF0162
:10009000F92FE82F05900D92A217B307D9F7FE01AB
:1000A00004C01D92A217B307E1F7E836F40731F751
:0C00B0000E9469000C945E00F894FFCFE1
:1000BC00EC010E9478000E947700CE010E9479002A
:0600CC00CE010E94750048
:1000D20014BC85E085BD16BC789480E284B92D9A63
:0400E20086B5FECF12
:0400E6000C94000076
:0400EA000E945C0014
:0200EE00089573
:0200F000089571
:0200F20008956F
:00000001FF
