:100000000C9434000C9459000C9459000C94590031
:100010000C9459000C9459000C9459000C945900FC
:100020000C9459000C9459000C9459000C945900EC
:100030000C9459000C9459000C9459000C945900DC
:100040000C9459000C9459000C9459000C945900CC
:100050000C9459000C9459000C9459000C945900BC
:100060000C9459000C94590011241FBECFEFD8E016
:10007000DEBFCDBF0E9440000C944E00F894FFCF2D
:1000800080E18AB914B883E085B980E1189902C08B
:0C0090008BB9FCCF1999FACF1BB8F8CF40
:10009C00EC010E945E000E945D00CE010E945F0098
:0600AC00CE010E945B0082
:0400B2000C940000AA
:0400B6000E943E0066
:0200BA000895A7
:0200BC000895A5
:0200BE000895A3
:00000001FF
