:100000000C9437000C94B6000C94B6000C94B60017
:100010000C94B6000C94B6000C94B6000C94B60088
:100020000C94B6000C94B6000C94B6000C94B60078
:100030000C94B6000C94B6000C94B6000C94B60068
:100040000C94B6000C94B6000C94B6000C94B60058
:100050000C94B6000C9461000C94B6000C94B6009D
:100060000C94B6000C94B60001000102800011242B
:100070001FBECFEFD8E0DEBFCDBFE8E6F0E040E046
:1000800017C0B591A59135912591059107FD0CC03B
:1000900095918591EF01F92FE82F05900D92A21708
:1000A000B307D9F7FE0104C01D92A217B307E1F709
:1000B000ED36F40731F70E947F000C94AB00F89402
:0200C000FFCF70
:1000C2008F938FB78F939F93EF93FF9395B181E0B7
:1000D200892785B9809178009091790090930101E8
:1000E20080930001EAE7F0E0808180648083FF91E1
:0C00F200EF919F918F918FBF8F91189517
:1000FE008FEF8AB98FE084B90E949D00EAE7F0E0A5
:10010E008081806480838091000190910101969599
:10011E008795969587958BB92FEF81EE94E02150B8
:0C012E0080409040E1F700C00000EDCFE1
:10013A00ECE7F0E0808180648083EAE7F0E08FE812
:0C014A0080838081886080837894089511
:10015600EC010E94BB000E94BA00CE010E94BC00C6
:06016600CE010E94B8006A
:04016C000C940000EF
:040170000E945F008A
:020174000895EC
:020176000895EA
:020178000895E8
:00000001FF
