:100000000C9437000C941F020C948E020C948E02F8
:100010000C948E020C948E020C948E020C948E0220
:100020000C948E020C948E020C948E020C948E0210
:100030000C948E020C948E020C948E020C948E0200
:100040000C943A010C948E020C948E020C948E0245
:100050000C948E020C948E020C948E020C948E02E0
:100060000C948E020C948E02010001048000112475
:100070001FBECFEFD8E0DEBFCDBFE8E6F0E040E046
:1000800017C0B591A59135912591059107FD0CC03B
:1000900095918591EF01F92FE82F05900D92A21708
:1000A000B307D9F7FE0104C01D92A217B307E1F709
:1000B000ED36F40731F70E9442020C944D02F89499
:0200C000FFCF70
:1000C20010C00E94690258F00E94620240F029F4B6
:1000D2005F3F29F00C947D0251110C9471020C9433
:1000E2008B020E94FD0168F39923B1F3552391F32A
:1000F200951B550BBB27AA2762177307840738F095
:100102009F5F5F4F220F331F441FAA1FA9F335D0F1
:100112000E2E3AF0E0E832D091505040E695001CA5
:10012200CAF72BD0FE2F29D0660F771F881FBB1F5F
:10013200261737074807AB07B0E809F0BB0B802D3D
:10014200BF01FF2793585F4F3AF09E3F510578F069
:100152000C947D020C9471025F3FE4F3983ED4F359
:10016200869577956795B795F7959F5FC9F7880F3D
:10017200911D9695879597F90895E1E0660F771F8F
:10018200881FBB1F621773078407BA0720F0621B20
:0E019200730B840BBA0BEE1F88F7E0950895EF
:1001A0000FC00E94620238F00E94690220F095237D
:1001B00011F00C947D020C948B0211240C947102AA
:1001C0000E94FD0170F3959FC1F3950F50E0551FFC
:1001D000629FF001729FBB27F00DB11D639FAA279C
:1001E000F00DB11DAA1F649F6627B00DA11D661FEB
:1001F000829F2227B00DA11D621F739FB00DA11D0C
:10020000621F839FA00D611D221F749F3327A00DC5
:10021000611D231F849F600D211D822F762F6A2F61
:1002200011249F5750409AF0F1F088234AF0EE0FC6
:10023000FF1FBB1F661F771F881F91505040A9F7F3
:100240009E3F510580F00C947D020C9471025F3F3B
:10025000E4F3983ED4F3869577956795B795F7952F
:10026000E7959F5FC1F7FE2B880F911D96958795A7
:0402700097F908955D
:100274001F920F920FB60F9211242F933F934F9317
:100284005F936F937F938F939F93AF93BF93CF931A
:10029400DF93EF93FF9380910301882369F18091A9
:1002A4000001909101010196909301018093000156
:1002B40060910201C0910001D091010170E080E0E1
:1002C40090E00E94930124E13EEA42E052E40E945D
:1002D400870220E030E044E353E40E9483020E945A
:1002E400CE01C617D70740F0289A83E08A95F1F724
:1002F4000000289810920301FF91EF91DF91CF91B4
:10030400BF91AF919F918F917F916F915F914F9129
:0E0314003F912F910F900FBE0F901F901895E4
:10032200E89409C097FB3EF490958095709561958D
:100332007F4F8F4F9F4F9923A9F0F92F96E9BB2743
:100342009395F695879577956795B795F111F8CFBF
:10035200FAF4BB0F11F460FF1BC06F5F7F4F8F4F2A
:100362009F4F16C0882311F096E911C0772321F020
:100372009EE8872F762F05C0662371F096E8862FB8
:1003820070E060E02AF09A95660F771F881FDAF70F
:0A039200880F9695879597F9089556
:10039C000E94050288F09F5798F0B92F9927B75102
:1003AC00B0F0E1F0660F771F881F991F1AF0BA950D
:1003BC00C9F714C0B13091F00E947002B1E00895F9
:1003CC000C947002672F782F8827B85F39F0B93FEB
:1003DC00CCF3869577956795B395D9F73EF49095C0
:0E03EC008095709561957F4F8F4F9F4F0895BC
:1003FA0057FD9058440F551F59F05F3F71F04795CC
:10040A00880F97FB991F61F09F3F79F087950895B0
:10041A00121613061406551FF2CF4695F1DF08C0CF
:10042A00161617061806991FF1CF869571056105EC
:04043A000894089585
:10043E001F921FB61F9211248F9381E080930301A8
:10044E0016BC10920101109200018F911F901FBED9
:04045E001F9018953E
:10046200092E0394000C11F4882352F0BB0F40F4C0
:10047200BF2B11F460FF04C06F5F7F4F8F4F9F4F00
:020482000895DB
:10048400209A28980E9458020E94770278948AE55C
:0604940080930201FDCF80
:10049A00EC010E9493020E949202CE010E949402F1
:0604AA00CE010E94900249
:1004B00014BC85B5826085BDEEE6F0E08081816088
:0404C0008083089598
:0E04C40000240A941616170618060906089555
:0E04D20000240A941216130614060506089557
:0E04E000E894BB2766277727CB0197F908958C
:0C04EE0082E08093690081E08DBB0895DE
:0C04FA0097F99F6780E870E060E00895CB
:080506000E9461000C94310217
:08050E000E94D0000C943102A0
:060516009FEF80EC089548
:04051C000C9400003B
:040520000E945F00D6
:02052400089538
:02052600089536
:02052800089534
:00000001FF
