:100000000C9434000C9462000C9462000C94620016
:100010000C9462000C9462000C9462000C946200D8
:100020000C9462000C9462000C9462000C946200C8
:100030000C9462000C9462000C9462000C946200B8
:100040000C9462000C9462000C9462000C946200A8
:100050000C9462000C9462000C9462000C94620098
:100060000C9462000C94620011241FBECFEFD8E004
:10007000DEBFCDBF0E9440000C945700F894FFCF24
:1000800080E18AB98BB92FE33DE093E02150304005
:100090009040E1F700C000001BB82FE33DE093E083
:0E00A000215030409040E1F700C00000EBCF4F
:1000AE00EC010E9467000E946600CE010E9468006B
:0600BE00CE010E94640067
:0400C4000C94000098
:0400C8000E943E0054
:0200CC00089595
:0200CE00089593
:0200D000089591
:00000001FF
