:100000000C9434000C94A1000C94A1000C94A10059
:100010000C94A1000C94A1000C94A1000C94A100DC
:100020000C94A1000C94A1000C94A1000C94A100CC
:100030000C94A1000C94A1000C94A1000C94A100BC
:100040000C94A1000C94A1000C94A1000C94A100AC
:100050000C94A1000C94A1000C94A1000C94A1009C
:100060000C94A1000C94A10011241FBECFEFD8E086
:10007000DEBFCDBF0E949A000C948F00F894FFCF92
:1000800081110AC02FEF629FC001112464E670E065
:100090000E94580067BD0895813049F42FEF629F98
:1000A000C001112464E670E00E94580068BD089504
:1000B00097FB072E16F4009407D077FD09D00E9415
:1000C0006C0007FC05D03EF4909581959F4F0895F4
:0800D000709561957F4F0895C2
:1000D800AA1BBB1B51E107C0AA1FBB1FA617B70766
:1000E80010F0A61BB70B881F991F5A95A9F7809582
:0800F8009095BC01CD010895B3
:100100008AB180668AB983E084BD84B5806A84BD83
:0E01100082E085BD8FE787BD80E488BD08953D
:10011E00EC010E94A6000E94A500CE010E94A7003D
:06012E00CE010E94A300B7
:0E0134000E9480009FEB8FE797BD88BDFDCF36
:040142000C94000019
:040146000E943E00D5
:02014A00089516
:02014C00089514
:02014E00089512
:00000001FF
