:100000000C9437000C9471020C9471020C947102E0
:100010000C9471020C9471020C9471020C94710294
:100020000C9471020C9471020C9471020C94710284
:100030000C9471020C9471020C9471020C94710274
:100040000C9471020C9471020C9498000C9471023F
:100050000C9471020C9471020C9471020C94710254
:100060000C9471020C9471020100010180001124B2
:100070001FBECFEFD8E0DEBFCDBFE8E6F0E040E046
:1000800017C0B591A59135912591059107FD0CC03B
:1000900095918591EF01F92FE82F05900D92A21708
:1000A000B307D9F7FE0104C01D92A217B307E1F709
:1000B000ED36F40731F70E94CB000C943A02F89425
:0200C000FFCF70
:1000C200CF93DF93CDB7DEB785EC90E0FC011082D1
:1000D20084EC90E027E6FC01208381EC90E028E9A3
:1000E200FC01208382EC90E026E0FC0120837894DE
:1000F2000000DF91CF910895CF93DF930F92CDB798
:10010200DEB78983000080EC90E0FC018081882FBB
:1001120090E080729927892BB1F386EC90E02981D7
:10012200FC01208300000F90DF91CF9108951F9270
:100132000F920FB60F9211242F933F934F935F9319
:100142006F937F938F939F93AF93BF93EF93FF939D
:10015200CF93DF93CDB7DEB786EC90E0FC018081D0
:1001620080930001809100010E947D000000DF91D8
:10017200CF91FF91EF91BF91AF919F918F917F911D
:100182006F915F914F913F912F910F900FBE0F9002
:100192001F901895CF93DF93CDB7DEB72E970FB68A
:1001A200F894DEBF0FBECDBF0E94610080E090E0F8
:1001B200A8ECB2E489839A83AB83BC8320E030E06D
:1001C2004AE753E469817A818B819C810E946A02A9
:1001D200DC01CB018D839E83AF83B88720E030E0C2
:1001E20040E85FE36D817E818F8198850E94600285
:1001F20088232CF481E090E09A8789873FC020E031
:100202003FEF4FE757E46D817E818F8198850E9491
:10021200650218164CF520E030E040E251E46981B5
:100222007A818B819C810E946A02DC01CB01BC0134
:10023200CD010E94B401DC01CB019A8789870FC0EE
:1002420089E190E09C878B878B859C850197F1F7EC
:100252009C878B8789859A8501979A878987898563
:100262009A85892B69F714C06D817E818F8198856B
:100272000E94B401DC01CB019A87898789859A851E
:100282009E878D878D859E850197F1F79E878D8745
:020292008DCF0E
:100294000FC00E944C0238F00E94530220F09523B4
:1002A40011F00C945A020C946E0211240C94460220
:1002B4000E94070270F3959FC1F3950F50E0551FFC
:1002C400629FF001729FBB27F00DB11D639FAA27A7
:1002D400F00DB11DAA1F649F6627B00DA11D661FF6
:1002E400829F2227B00DA11D621F739FB00DA11D17
:1002F400621F839FA00D611D221F749F3327A00DD1
:10030400611D231F849F600D211D822F762F6A2F6C
:1003140011249F5750409AF0F1F088234AF0EE0FD1
:10032400FF1FBB1F661F771F881F91505040A9F7FE
:100334009E3F510580F00C945A020C9446025F3F94
:10034400E4F3983ED4F3869577956795B795F7953A
:10035400E7959F5FC1F7FE2B880F911D96958795B2
:0403640097F9089568
:100368000E940F0288F09F5798F0B92F9927B7512C
:10037800B0F0E1F0660F771F881F991F1AF0BA9541
:10038800C9F714C0B13091F00E944502B1E0089558
:100398000C944502672F782F8827B85F39F0B93F4A
:1003A800CCF3869577956795B395D9F73EF49095F4
:0E03B8008095709561957F4F8F4F9F4F0895F0
:1003C600990F0008550FAA0BE0E8FEEF1616170660
:1003D600E807F907C0F012161306E407F50798F0C8
:1003E600621B730B840B950B39F40A2661F0232BE1
:1003F600242B252B21F408950A2609F4A140A6955D
:080406008FEF811D811D089597
:10040E0057FD9058440F551F59F05F3F71F04795B7
:10041E00880F97FB991F61F09F3F79F0879508959C
:10042E00121613061406551FF2CF4695F1DF08C0BB
:10043E00161617061806991FF1CF869571056105D8
:04044E000894089571
:10045200092E0394000C11F4882352F0BB0F40F4D0
:10046200BF2B11F460FF04C06F5F7F4F8F4F9F4F10
:020472000895EB
:10047400EC010E9476020E947502CE010E9477026E
:06048400CE010E9473028C
:0E048A00E894BB2766277727CB0197F90895E2
:0E04980000240A941616170618060906089581
:0E04A60000240A941216130614060506089583
:0C04B40097F99F6780E870E060E0089511
:0A04C0000E94E30108F481E00895B2
:0A04CA000E94E30108F48FEF08958B
:0804D4000E944A010C94290268
:0604DC009FEF80EC089583
:0404E2000C94000076
:0404E6000E945F0011
:0204EA00089573
:0204EC00089571
:0204EE0008956F
:00000001FF
