:100000000C9434000C9468000C9468000C94680004
:100010000C9468000C9468000C9468000C946800C0
:100020000C9468000C9468000C9468000C946800B0
:100030000C9468000C9468000C9468000C946800A0
:100040000C9440000C9468000C9468000C946800B8
:100050000C9468000C9468000C9468000C94680080
:100060000C9468000C94680011241FBECFEFD8E0F8
:10007000DEBFCDBF0E944F000C945D00F894FFCF0F
:100080008F938FB78F939F9395B181E0892785B91F
:0E00900086EF86BD9F918F918FBF8F9118953F
:10009E00209A289814BC87E085BD86EF86BDEEE6D3
:0C00AE00F0E08081816080837894FFCFB7
:1000BA00EC010E946D000E946C00CE010E946E004D
:0600CA00CE010E946A0055
:0400D0000C9400008C
:0400D4000E943E0048
:0200D800089589
:0200DA00089587
:0200DC00089585
:00000001FF
